{
  "contractName": "ChainList",
  "abi": [
    {
      "inputs": [],
      "name": "buyer",
      "outputs": [
        {
          "internalType": "address",
          "name": "",
          "type": "address"
        }
      ],
      "stateMutability": "view",
      "type": "function",
      "constant": true
    },
    {
      "inputs": [],
      "name": "description",
      "outputs": [
        {
          "internalType": "string",
          "name": "",
          "type": "string"
        }
      ],
      "stateMutability": "view",
      "type": "function",
      "constant": true
    },
    {
      "inputs": [],
      "name": "name",
      "outputs": [
        {
          "internalType": "string",
          "name": "",
          "type": "string"
        }
      ],
      "stateMutability": "view",
      "type": "function",
      "constant": true
    },
    {
      "inputs": [],
      "name": "price",
      "outputs": [
        {
          "internalType": "uint256",
          "name": "",
          "type": "uint256"
        }
      ],
      "stateMutability": "view",
      "type": "function",
      "constant": true
    },
    {
      "inputs": [],
      "name": "seller",
      "outputs": [
        {
          "internalType": "address",
          "name": "",
          "type": "address"
        }
      ],
      "stateMutability": "view",
      "type": "function",
      "constant": true
    },
    {
      "inputs": [
        {
          "internalType": "string",
          "name": "_name",
          "type": "string"
        },
        {
          "internalType": "string",
          "name": "_description",
          "type": "string"
        },
        {
          "internalType": "uint256",
          "name": "_price",
          "type": "uint256"
        }
      ],
      "name": "sellArticle",
      "outputs": [],
      "stateMutability": "nonpayable",
      "type": "function"
    },
    {
      "inputs": [],
      "name": "getArticle",
      "outputs": [
        {
          "internalType": "address",
          "name": "_seller",
          "type": "address"
        },
        {
          "internalType": "address",
          "name": "_buyer",
          "type": "address"
        },
        {
          "internalType": "string",
          "name": "_name",
          "type": "string"
        },
        {
          "internalType": "string",
          "name": "_description",
          "type": "string"
        },
        {
          "internalType": "uint256",
          "name": "_price",
          "type": "uint256"
        }
      ],
      "stateMutability": "view",
      "type": "function",
      "constant": true
    },
    {
      "inputs": [],
      "name": "buyArticle",
      "outputs": [],
      "stateMutability": "payable",
      "type": "function",
      "payable": true
    }
  ],
  "bytecode": "0x608060405234801561001057600080fd5b50610fa2806100206000396000f3fe60806040526004361061007b5760003560e01c8063a005db411161004e578063a005db411461012c578063a035b1fe14610136578063c37218a614610161578063d2609515146101905761007b565b806306fdde031461008057806308551a53146100ab5780637150d8ae146100d65780637284e41614610101575b600080fd5b34801561008c57600080fd5b506100956101b9565b6040516100a291906107eb565b60405180910390f35b3480156100b757600080fd5b506100c0610247565b6040516100cd919061084e565b60405180910390f35b3480156100e257600080fd5b506100eb61026b565b6040516100f8919061084e565b60405180910390f35b34801561010d57600080fd5b50610116610291565b60405161012391906107eb565b60405180910390f35b61013461031f565b005b34801561014257600080fd5b5061014b61052a565b6040516101589190610882565b60405180910390f35b34801561016d57600080fd5b50610176610530565b60405161018795949392919061089d565b60405180910390f35b34801561019c57600080fd5b506101b760048036038101906101b29190610a73565b6106ad565b005b600180546101c690610b2d565b80601f01602080910402602001604051908101604052809291908181526020018280546101f290610b2d565b801561023f5780601f106102145761010080835404028352916020019161023f565b820191906000526020600020905b81548152906001019060200180831161022257829003601f168201915b505050505081565b60008054906101000a900473ffffffffffffffffffffffffffffffffffffffff1681565b600460009054906101000a900473ffffffffffffffffffffffffffffffffffffffff1681565b6002805461029e90610b2d565b80601f01602080910402602001604051908101604052809291908181526020018280546102ca90610b2d565b80156103175780601f106102ec57610100808354040283529160200191610317565b820191906000526020600020905b8154815290600101906020018083116102fa57829003601f168201915b505050505081565b600073ffffffffffffffffffffffffffffffffffffffff1660008054906101000a900473ffffffffffffffffffffffffffffffffffffffff1673ffffffffffffffffffffffffffffffffffffffff16036103ae576040517f08c379a00000000000000000000000000000000000000000000000000000000081526004016103a590610baa565b60405180910390fd5b60008054906101000a900473ffffffffffffffffffffffffffffffffffffffff1673ffffffffffffffffffffffffffffffffffffffff163373ffffffffffffffffffffffffffffffffffffffff160361043c576040517f08c379a000000000000000000000000000000000000000000000000000000000815260040161043390610c3c565b60405180910390fd5b6003543414610480576040517f08c379a000000000000000000000000000000000000000000000000000000000815260040161047790610cce565b60405180910390fd5b33600460006101000a81548173ffffffffffffffffffffffffffffffffffffffff021916908373ffffffffffffffffffffffffffffffffffffffff16021790555060008054906101000a900473ffffffffffffffffffffffffffffffffffffffff1673ffffffffffffffffffffffffffffffffffffffff166108fc349081150290604051600060405180830381858888f19350505050158015610527573d6000803e3d6000fd5b50565b60035481565b60008060608060008060009054906101000a900473ffffffffffffffffffffffffffffffffffffffff16600460009054906101000a900473ffffffffffffffffffffffffffffffffffffffff166001600260035482805461059090610b2d565b80601f01602080910402602001604051908101604052809291908181526020018280546105bc90610b2d565b80156106095780601f106105de57610100808354040283529160200191610609565b820191906000526020600020905b8154815290600101906020018083116105ec57829003601f168201915b5050505050925081805461061c90610b2d565b80601f016020809104026020016040519081016040528092919081815260200182805461064890610b2d565b80156106955780601f1061066a57610100808354040283529160200191610695565b820191906000526020600020905b81548152906001019060200180831161067857829003601f168201915b50505050509150945094509450945094509091929394565b6000600460006101000a81548173ffffffffffffffffffffffffffffffffffffffff021916908373ffffffffffffffffffffffffffffffffffffffff160217905550336000806101000a81548173ffffffffffffffffffffffffffffffffffffffff021916908373ffffffffffffffffffffffffffffffffffffffff160217905550826001908161073e9190610e9a565b50816002908161074e9190610e9a565b5080600381905550505050565b600081519050919050565b600082825260208201905092915050565b60005b8381101561079557808201518184015260208101905061077a565b60008484015250505050565b6000601f19601f8301169050919050565b60006107bd8261075b565b6107c78185610766565b93506107d7818560208601610777565b6107e0816107a1565b840191505092915050565b6000602082019050818103600083015261080581846107b2565b905092915050565b600073ffffffffffffffffffffffffffffffffffffffff82169050919050565b60006108388261080d565b9050919050565b6108488161082d565b82525050565b6000602082019050610863600083018461083f565b92915050565b6000819050919050565b61087c81610869565b82525050565b60006020820190506108976000830184610873565b92915050565b600060a0820190506108b2600083018861083f565b6108bf602083018761083f565b81810360408301526108d181866107b2565b905081810360608301526108e581856107b2565b90506108f46080830184610873565b9695505050505050565b6000604051905090565b600080fd5b600080fd5b600080fd5b600080fd5b7f4e487b7100000000000000000000000000000000000000000000000000000000600052604160045260246000fd5b610954826107a1565b810181811067ffffffffffffffff821117156109735761097261091c565b5b80604052505050565b60006109866108fe565b9050610992828261094b565b919050565b600067ffffffffffffffff8211156109b2576109b161091c565b5b6109bb826107a1565b9050602081019050919050565b82818337600083830152505050565b60006109ea6109e584610997565b61097c565b905082815260208101848484011115610a0657610a05610917565b5b610a118482856109c8565b509392505050565b600082601f830112610a2e57610a2d610912565b5b8135610a3e8482602086016109d7565b91505092915050565b610a5081610869565b8114610a5b57600080fd5b50565b600081359050610a6d81610a47565b92915050565b600080600060608486031215610a8c57610a8b610908565b5b600084013567ffffffffffffffff811115610aaa57610aa961090d565b5b610ab686828701610a19565b935050602084013567ffffffffffffffff811115610ad757610ad661090d565b5b610ae386828701610a19565b9250506040610af486828701610a5e565b9150509250925092565b7f4e487b7100000000000000000000000000000000000000000000000000000000600052602260045260246000fd5b60006002820490506001821680610b4557607f821691505b602082108103610b5857610b57610afe565b5b50919050565b7f53656c6c6572206973206e6f7420736574000000000000000000000000000000600082015250565b6000610b94601183610766565b9150610b9f82610b5e565b602082019050919050565b60006020820190508181036000830152610bc381610b87565b9050919050565b7f53656c6c65722063616e6e6f742062757920686973206f776e2061727469636c60008201527f6500000000000000000000000000000000000000000000000000000000000000602082015250565b6000610c26602183610766565b9150610c3182610bca565b604082019050919050565b60006020820190508181036000830152610c5581610c19565b9050919050565b7f56616c75652073656e74206973206e6f7420657175616c20746f20746865207060008201527f72696365206f66207468652061727469636c6500000000000000000000000000602082015250565b6000610cb8603383610766565b9150610cc382610c5c565b604082019050919050565b60006020820190508181036000830152610ce781610cab565b9050919050565b60008190508160005260206000209050919050565b60006020601f8301049050919050565b600082821b905092915050565b600060088302610d507fffffffffffffffffffffffffffffffffffffffffffffffffffffffffffffffff82610d13565b610d5a8683610d13565b95508019841693508086168417925050509392505050565b6000819050919050565b6000610d97610d92610d8d84610869565b610d72565b610869565b9050919050565b6000819050919050565b610db183610d7c565b610dc5610dbd82610d9e565b848454610d20565b825550505050565b600090565b610dda610dcd565b610de5818484610da8565b505050565b5b81811015610e0957610dfe600082610dd2565b600181019050610deb565b5050565b601f821115610e4e57610e1f81610cee565b610e2884610d03565b81016020851015610e37578190505b610e4b610e4385610d03565b830182610dea565b50505b505050565b600082821c905092915050565b6000610e7160001984600802610e53565b1980831691505092915050565b6000610e8a8383610e60565b9150826002028217905092915050565b610ea38261075b565b67ffffffffffffffff811115610ebc57610ebb61091c565b5b610ec68254610b2d565b610ed1828285610e0d565b600060209050601f831160018114610f045760008415610ef2578287015190505b610efc8582610e7e565b865550610f64565b601f198416610f1286610cee565b60005b82811015610f3a57848901518255600182019150602085019450602081019050610f15565b86831015610f575784890151610f53601f891682610e60565b8355505b6001600288020188555050505b50505050505056fea26469706673582212203bb799867358a93369b0eeb4c8443cff903851a52c36ffb6f636c637311c42b064736f6c63430008100033",
  "immutableReferences": {},
  "source": "// SPDX-License-Identifier: MIT\r\npragma solidity ^0.8.8;\r\n\r\ncontract ChainList {\r\n    // state variables\r\n    address public seller;\r\n    string public name;\r\n    string public description;\r\n    uint256 public price;\r\n    address public buyer;\r\n\r\n    \r\n    // Function to sell an article\r\n    function sellArticle(string memory _name, string memory _description, uint256 _price) public {\r\n        buyer = address(0x0);\r\n        seller = msg.sender;\r\n        name = _name;\r\n        description = _description;\r\n        price = _price;\r\n    }\r\n\r\n    function getArticle() public view returns (\r\n        address _seller,\r\n        address _buyer,\r\n        string memory _name,\r\n        string memory _description,\r\n        uint256 _price\r\n    ) {\r\n        return (seller,buyer, name, description, price);\r\n    }\r\n\r\n    // Function to buy an article\r\n    function buyArticle() payable public {\r\n        // checks if there is an article for sale\r\n        require(seller != address(0x0), \"Seller is not set\");\r\n        // checks if the article has not been sold yet\r\n        require(msg.sender != seller, \"Seller cannot buy his own article\");\r\n        // checks if the value sent corresponds to the price of the article\r\n        require(msg.value == price, \"Value sent is not equal to the price of the article\");\r\n        // transfer the ownership of the article\r\n        buyer = msg.sender;\r\n        // the buyer can pay the seller\r\n        payable(seller).transfer(msg.value);\r\n\r\n    }\r\n}\r\n",
  "sourcePath": "C:\\Users\\HP\\Desktop\\Coding Playground\\web3\\truffle\\web3-dapp\\Chainlist-web3-dapp\\contracts\\ChainList.sol",
  "compiler": {
    "name": "solc",
    "version": "0.8.16+commit.07a7930e.Emscripten.clang"
  },
  "schemaVersion": "3.4.16",
  "updatedAt": "2024-05-08T08:40:42.490Z",
  "networkType": "ethereum",
  "devdoc": {
    "kind": "dev",
    "methods": {},
    "version": 1
  },
  "userdoc": {
    "kind": "user",
    "methods": {},
    "version": 1
  }
}