{
  "contractName": "ChainList",
  "abi": [
    {
      "inputs": [],
      "name": "description",
      "outputs": [
        {
          "internalType": "string",
          "name": "",
          "type": "string"
        }
      ],
      "stateMutability": "view",
      "type": "function",
      "constant": true
    },
    {
      "inputs": [],
      "name": "name",
      "outputs": [
        {
          "internalType": "string",
          "name": "",
          "type": "string"
        }
      ],
      "stateMutability": "view",
      "type": "function",
      "constant": true
    },
    {
      "inputs": [],
      "name": "price",
      "outputs": [
        {
          "internalType": "uint256",
          "name": "",
          "type": "uint256"
        }
      ],
      "stateMutability": "view",
      "type": "function",
      "constant": true
    },
    {
      "inputs": [],
      "name": "seller",
      "outputs": [
        {
          "internalType": "address",
          "name": "",
          "type": "address"
        }
      ],
      "stateMutability": "view",
      "type": "function",
      "constant": true
    },
    {
      "inputs": [
        {
          "internalType": "string",
          "name": "_name",
          "type": "string"
        },
        {
          "internalType": "string",
          "name": "_description",
          "type": "string"
        },
        {
          "internalType": "uint256",
          "name": "_price",
          "type": "uint256"
        }
      ],
      "name": "sellArticle",
      "outputs": [],
      "stateMutability": "nonpayable",
      "type": "function"
    },
    {
      "inputs": [],
      "name": "getArticle",
      "outputs": [
        {
          "internalType": "address",
          "name": "_seller",
          "type": "address"
        },
        {
          "internalType": "string",
          "name": "_name",
          "type": "string"
        },
        {
          "internalType": "string",
          "name": "_description",
          "type": "string"
        },
        {
          "internalType": "uint256",
          "name": "_price",
          "type": "uint256"
        }
      ],
      "stateMutability": "view",
      "type": "function",
      "constant": true
    }
  ],
  "bytecode": "0x608060405234801561001057600080fd5b50610acd806100206000396000f3fe608060405234801561001057600080fd5b50600436106100625760003560e01c806306fdde031461006757806308551a53146100855780637284e416146100a3578063a035b1fe146100c1578063c37218a6146100df578063d260951514610100575b600080fd5b61006f61011c565b60405161007c91906104b4565b60405180910390f35b61008d6101aa565b60405161009a9190610517565b60405180910390f35b6100ab6101ce565b6040516100b891906104b4565b60405180910390f35b6100c961025c565b6040516100d6919061054b565b60405180910390f35b6100e7610262565b6040516100f79493929190610566565b60405180910390f35b61011a6004803603810190610115919061072e565b6103b8565b005b60018054610129906107e8565b80601f0160208091040260200160405190810160405280929190818152602001828054610155906107e8565b80156101a25780601f10610177576101008083540402835291602001916101a2565b820191906000526020600020905b81548152906001019060200180831161018557829003601f168201915b505050505081565b60008054906101000a900473ffffffffffffffffffffffffffffffffffffffff1681565b600280546101db906107e8565b80601f0160208091040260200160405190810160405280929190818152602001828054610207906107e8565b80156102545780601f1061022957610100808354040283529160200191610254565b820191906000526020600020905b81548152906001019060200180831161023757829003601f168201915b505050505081565b60035481565b600060608060008060009054906101000a900473ffffffffffffffffffffffffffffffffffffffff166001600260035482805461029e906107e8565b80601f01602080910402602001604051908101604052809291908181526020018280546102ca906107e8565b80156103175780601f106102ec57610100808354040283529160200191610317565b820191906000526020600020905b8154815290600101906020018083116102fa57829003601f168201915b5050505050925081805461032a906107e8565b80601f0160208091040260200160405190810160405280929190818152602001828054610356906107e8565b80156103a35780601f10610378576101008083540402835291602001916103a3565b820191906000526020600020905b81548152906001019060200180831161038657829003601f168201915b50505050509150935093509350935090919293565b336000806101000a81548173ffffffffffffffffffffffffffffffffffffffff021916908373ffffffffffffffffffffffffffffffffffffffff160217905550826001908161040791906109c5565b50816002908161041791906109c5565b5080600381905550505050565b600081519050919050565b600082825260208201905092915050565b60005b8381101561045e578082015181840152602081019050610443565b60008484015250505050565b6000601f19601f8301169050919050565b600061048682610424565b610490818561042f565b93506104a0818560208601610440565b6104a98161046a565b840191505092915050565b600060208201905081810360008301526104ce818461047b565b905092915050565b600073ffffffffffffffffffffffffffffffffffffffff82169050919050565b6000610501826104d6565b9050919050565b610511816104f6565b82525050565b600060208201905061052c6000830184610508565b92915050565b6000819050919050565b61054581610532565b82525050565b6000602082019050610560600083018461053c565b92915050565b600060808201905061057b6000830187610508565b818103602083015261058d818661047b565b905081810360408301526105a1818561047b565b90506105b0606083018461053c565b95945050505050565b6000604051905090565b600080fd5b600080fd5b600080fd5b600080fd5b7f4e487b7100000000000000000000000000000000000000000000000000000000600052604160045260246000fd5b61060f8261046a565b810181811067ffffffffffffffff8211171561062e5761062d6105d7565b5b80604052505050565b60006106416105b9565b905061064d8282610606565b919050565b600067ffffffffffffffff82111561066d5761066c6105d7565b5b6106768261046a565b9050602081019050919050565b82818337600083830152505050565b60006106a56106a084610652565b610637565b9050828152602081018484840111156106c1576106c06105d2565b5b6106cc848285610683565b509392505050565b600082601f8301126106e9576106e86105cd565b5b81356106f9848260208601610692565b91505092915050565b61070b81610532565b811461071657600080fd5b50565b60008135905061072881610702565b92915050565b600080600060608486031215610747576107466105c3565b5b600084013567ffffffffffffffff811115610765576107646105c8565b5b610771868287016106d4565b935050602084013567ffffffffffffffff811115610792576107916105c8565b5b61079e868287016106d4565b92505060406107af86828701610719565b9150509250925092565b7f4e487b7100000000000000000000000000000000000000000000000000000000600052602260045260246000fd5b6000600282049050600182168061080057607f821691505b602082108103610813576108126107b9565b5b50919050565b60008190508160005260206000209050919050565b60006020601f8301049050919050565b600082821b905092915050565b60006008830261087b7fffffffffffffffffffffffffffffffffffffffffffffffffffffffffffffffff8261083e565b610885868361083e565b95508019841693508086168417925050509392505050565b6000819050919050565b60006108c26108bd6108b884610532565b61089d565b610532565b9050919050565b6000819050919050565b6108dc836108a7565b6108f06108e8826108c9565b84845461084b565b825550505050565b600090565b6109056108f8565b6109108184846108d3565b505050565b5b81811015610934576109296000826108fd565b600181019050610916565b5050565b601f8211156109795761094a81610819565b6109538461082e565b81016020851015610962578190505b61097661096e8561082e565b830182610915565b50505b505050565b600082821c905092915050565b600061099c6000198460080261097e565b1980831691505092915050565b60006109b5838361098b565b9150826002028217905092915050565b6109ce82610424565b67ffffffffffffffff8111156109e7576109e66105d7565b5b6109f182546107e8565b6109fc828285610938565b600060209050601f831160018114610a2f5760008415610a1d578287015190505b610a2785826109a9565b865550610a8f565b601f198416610a3d86610819565b60005b82811015610a6557848901518255600182019150602085019450602081019050610a40565b86831015610a825784890151610a7e601f89168261098b565b8355505b6001600288020188555050505b50505050505056fea264697066735822122085ca7766f805c78e26756423e274ca260670b4dad654a3a819409b9961012a4464736f6c63430008100033",
  "immutableReferences": {},
  "source": "// SPDX-License-Identifier: MIT\r\npragma solidity ^0.8.8;\r\n\r\ncontract ChainList {\r\n    // state variables\r\n    address public seller;\r\n    string public name;\r\n    string public description;\r\n    uint256 public price;\r\n\r\n    \r\n    // Function to sell an article\r\n    function sellArticle(string memory _name, string memory _description, uint256 _price) public {\r\n        seller = msg.sender;\r\n        name = _name;\r\n        description = _description;\r\n        price = _price;\r\n    }\r\n\r\n    function getArticle() public view returns (\r\n        address _seller,\r\n        string memory _name,\r\n        string memory _description,\r\n        uint256 _price\r\n    ) {\r\n        return (seller, name, description, price);\r\n    }\r\n}\r\n",
  "sourcePath": "C:\\Users\\HP\\Desktop\\Coding Playground\\web3\\truffle\\web3-dapp\\contracts\\ChainList.sol",
  "compiler": {
    "name": "solc",
    "version": "0.8.16+commit.07a7930e.Emscripten.clang"
  },
  "schemaVersion": "3.4.16",
  "updatedAt": "2024-05-06T15:07:13.935Z",
  "networkType": "ethereum",
  "devdoc": {
    "kind": "dev",
    "methods": {},
    "version": 1
  },
  "userdoc": {
    "kind": "user",
    "methods": {},
    "version": 1
  }
}