{
  "contractName": "ChainList",
  "abi": [
    {
      "inputs": [
        {
          "internalType": "uint256",
          "name": "",
          "type": "uint256"
        }
      ],
      "name": "articles",
      "outputs": [
        {
          "internalType": "uint256",
          "name": "id",
          "type": "uint256"
        },
        {
          "internalType": "address",
          "name": "seller",
          "type": "address"
        },
        {
          "internalType": "address",
          "name": "buyer",
          "type": "address"
        },
        {
          "internalType": "string",
          "name": "name",
          "type": "string"
        },
        {
          "internalType": "string",
          "name": "description",
          "type": "string"
        },
        {
          "internalType": "uint256",
          "name": "price",
          "type": "uint256"
        }
      ],
      "stateMutability": "view",
      "type": "function",
      "constant": true
    },
    {
      "inputs": [
        {
          "internalType": "string",
          "name": "_name",
          "type": "string"
        },
        {
          "internalType": "string",
          "name": "_description",
          "type": "string"
        },
        {
          "internalType": "uint256",
          "name": "_price",
          "type": "uint256"
        }
      ],
      "name": "sellArticle",
      "outputs": [],
      "stateMutability": "nonpayable",
      "type": "function"
    },
    {
      "inputs": [],
      "name": "getNumberOfArticles",
      "outputs": [
        {
          "internalType": "uint256",
          "name": "",
          "type": "uint256"
        }
      ],
      "stateMutability": "view",
      "type": "function",
      "constant": true
    },
    {
      "inputs": [],
      "name": "getArticlesForSale",
      "outputs": [
        {
          "internalType": "uint256[]",
          "name": "",
          "type": "uint256[]"
        }
      ],
      "stateMutability": "view",
      "type": "function",
      "constant": true
    },
    {
      "inputs": [],
      "name": "getArticle",
      "outputs": [
        {
          "internalType": "address",
          "name": "_seller",
          "type": "address"
        },
        {
          "internalType": "address",
          "name": "_buyer",
          "type": "address"
        },
        {
          "internalType": "string",
          "name": "_name",
          "type": "string"
        },
        {
          "internalType": "string",
          "name": "_description",
          "type": "string"
        },
        {
          "internalType": "uint256",
          "name": "_price",
          "type": "uint256"
        }
      ],
      "stateMutability": "view",
      "type": "function",
      "constant": true
    },
    {
      "inputs": [
        {
          "internalType": "uint256",
          "name": "_id",
          "type": "uint256"
        }
      ],
      "name": "buyArticle",
      "outputs": [],
      "stateMutability": "payable",
      "type": "function",
      "payable": true
    }
  ],
  "bytecode": "0x608060405234801561001057600080fd5b50611534806100206000396000f3fe6080604052600436106100555760003560e01c80631cc4baa81461005a5780637f6be3da1461007657806389da85d3146100a1578063c37218a6146100cc578063d2609515146100fb578063edcfafe614610124575b600080fd5b610074600480360381019061006f9190610a20565b610166565b005b34801561008257600080fd5b5061008b61042f565b6040516100989190610b0b565b60405180910390f35b3480156100ad57600080fd5b506100b66104e9565b6040516100c39190610b3c565b60405180910390f35b3480156100d857600080fd5b506100e16104f3565b6040516100f2959493929190610c28565b60405180910390f35b34801561010757600080fd5b50610122600480360381019061011d9190610dbe565b6106ec565b005b34801561013057600080fd5b5061014b60048036038101906101469190610a20565b61084a565b60405161015d96959493929190610e49565b60405180910390f35b6000600154116101ab576040517f08c379a00000000000000000000000000000000000000000000000000000000081526004016101a290610f2a565b60405180910390fd5b6000811180156101bd57506001548111155b6101fc576040517f08c379a00000000000000000000000000000000000000000000000000000000081526004016101f390610f96565b60405180910390fd5b60008060008381526020019081526020016000209050600073ffffffffffffffffffffffffffffffffffffffff168160010160009054906101000a900473ffffffffffffffffffffffffffffffffffffffff1673ffffffffffffffffffffffffffffffffffffffff16036102a5576040517f08c379a000000000000000000000000000000000000000000000000000000000815260040161029c90611002565b60405180910390fd5b8060010160009054906101000a900473ffffffffffffffffffffffffffffffffffffffff1673ffffffffffffffffffffffffffffffffffffffff163373ffffffffffffffffffffffffffffffffffffffff1603610337576040517f08c379a000000000000000000000000000000000000000000000000000000000815260040161032e90611094565b60405180910390fd5b8060050154341461037d576040517f08c379a000000000000000000000000000000000000000000000000000000000815260040161037490611126565b60405180910390fd5b338160020160006101000a81548173ffffffffffffffffffffffffffffffffffffffff021916908373ffffffffffffffffffffffffffffffffffffffff1602179055508060010160009054906101000a900473ffffffffffffffffffffffffffffffffffffffff1673ffffffffffffffffffffffffffffffffffffffff166108fc349081150290604051600060405180830381858888f1935050505015801561042a573d6000803e3d6000fd5b505050565b6060600060015467ffffffffffffffff81111561044f5761044e610c93565b5b60405190808252806020026020018201604052801561047d5781602001602082028036833780820191505090505b50905060005b6001548110156104e15760008060018361049d9190611175565b8152602001908152602001600020600001548282815181106104c2576104c16111a9565b5b60200260200101818152505080806104d9906111d8565b915050610483565b508091505090565b6000600154905090565b6000806060806000806000806001815260200190815260200160002060010160009054906101000a900473ffffffffffffffffffffffffffffffffffffffff16905060008060006002815260200190815260200160002060020160009054906101000a900473ffffffffffffffffffffffffffffffffffffffff16905060008060006003815260200190815260200160002060030180546105939061124f565b80601f01602080910402602001604051908101604052809291908181526020018280546105bf9061124f565b801561060c5780601f106105e15761010080835404028352916020019161060c565b820191906000526020600020905b8154815290600101906020018083116105ef57829003601f168201915b5050505050905060008060006004815260200190815260200160002060040180546106369061124f565b80601f01602080910402602001604051908101604052809291908181526020018280546106629061124f565b80156106af5780601f10610684576101008083540402835291602001916106af565b820191906000526020600020905b81548152906001019060200180831161069257829003601f168201915b5050505050905060008060006005815260200190815260200160002060050154905084848484849950995099509950995050505050509091929394565b600160008154809291906106ff906111d8565b91905055506040518060c0016040528060015481526020013373ffffffffffffffffffffffffffffffffffffffff168152602001600073ffffffffffffffffffffffffffffffffffffffff1681526020018481526020018381526020018281525060008060015481526020019081526020016000206000820151816000015560208201518160010160006101000a81548173ffffffffffffffffffffffffffffffffffffffff021916908373ffffffffffffffffffffffffffffffffffffffff16021790555060408201518160020160006101000a81548173ffffffffffffffffffffffffffffffffffffffff021916908373ffffffffffffffffffffffffffffffffffffffff1602179055506060820151816003019081610821919061142c565b506080820151816004019081610837919061142c565b5060a08201518160050155905050505050565b60006020528060005260406000206000915090508060000154908060010160009054906101000a900473ffffffffffffffffffffffffffffffffffffffff16908060020160009054906101000a900473ffffffffffffffffffffffffffffffffffffffff16908060030180546108bf9061124f565b80601f01602080910402602001604051908101604052809291908181526020018280546108eb9061124f565b80156109385780601f1061090d57610100808354040283529160200191610938565b820191906000526020600020905b81548152906001019060200180831161091b57829003601f168201915b50505050509080600401805461094d9061124f565b80601f01602080910402602001604051908101604052809291908181526020018280546109799061124f565b80156109c65780601f1061099b576101008083540402835291602001916109c6565b820191906000526020600020905b8154815290600101906020018083116109a957829003601f168201915b5050505050908060050154905086565b6000604051905090565b600080fd5b600080fd5b6000819050919050565b6109fd816109ea565b8114610a0857600080fd5b50565b600081359050610a1a816109f4565b92915050565b600060208284031215610a3657610a356109e0565b5b6000610a4484828501610a0b565b91505092915050565b600081519050919050565b600082825260208201905092915050565b6000819050602082019050919050565b610a82816109ea565b82525050565b6000610a948383610a79565b60208301905092915050565b6000602082019050919050565b6000610ab882610a4d565b610ac28185610a58565b9350610acd83610a69565b8060005b83811015610afe578151610ae58882610a88565b9750610af083610aa0565b925050600181019050610ad1565b5085935050505092915050565b60006020820190508181036000830152610b258184610aad565b905092915050565b610b36816109ea565b82525050565b6000602082019050610b516000830184610b2d565b92915050565b600073ffffffffffffffffffffffffffffffffffffffff82169050919050565b6000610b8282610b57565b9050919050565b610b9281610b77565b82525050565b600081519050919050565b600082825260208201905092915050565b60005b83811015610bd2578082015181840152602081019050610bb7565b60008484015250505050565b6000601f19601f8301169050919050565b6000610bfa82610b98565b610c048185610ba3565b9350610c14818560208601610bb4565b610c1d81610bde565b840191505092915050565b600060a082019050610c3d6000830188610b89565b610c4a6020830187610b89565b8181036040830152610c5c8186610bef565b90508181036060830152610c708185610bef565b9050610c7f6080830184610b2d565b9695505050505050565b600080fd5b600080fd5b7f4e487b7100000000000000000000000000000000000000000000000000000000600052604160045260246000fd5b610ccb82610bde565b810181811067ffffffffffffffff82111715610cea57610ce9610c93565b5b80604052505050565b6000610cfd6109d6565b9050610d098282610cc2565b919050565b600067ffffffffffffffff821115610d2957610d28610c93565b5b610d3282610bde565b9050602081019050919050565b82818337600083830152505050565b6000610d61610d5c84610d0e565b610cf3565b905082815260208101848484011115610d7d57610d7c610c8e565b5b610d88848285610d3f565b509392505050565b600082601f830112610da557610da4610c89565b5b8135610db5848260208601610d4e565b91505092915050565b600080600060608486031215610dd757610dd66109e0565b5b600084013567ffffffffffffffff811115610df557610df46109e5565b5b610e0186828701610d90565b935050602084013567ffffffffffffffff811115610e2257610e216109e5565b5b610e2e86828701610d90565b9250506040610e3f86828701610a0b565b9150509250925092565b600060c082019050610e5e6000830189610b2d565b610e6b6020830188610b89565b610e786040830187610b89565b8181036060830152610e8a8186610bef565b90508181036080830152610e9e8185610bef565b9050610ead60a0830184610b2d565b979650505050505050565b7f5468657265206d757374206265206174206c65617374206f6e6520617274696360008201527f6c65000000000000000000000000000000000000000000000000000000000000602082015250565b6000610f14602283610ba3565b9150610f1f82610eb8565b604082019050919050565b60006020820190508181036000830152610f4381610f07565b9050919050565b7f5468652061727469636c65206d75737420657869737400000000000000000000600082015250565b6000610f80601683610ba3565b9150610f8b82610f4a565b602082019050919050565b60006020820190508181036000830152610faf81610f73565b9050919050565b7f53656c6c6572206973206e6f7420736574000000000000000000000000000000600082015250565b6000610fec601183610ba3565b9150610ff782610fb6565b602082019050919050565b6000602082019050818103600083015261101b81610fdf565b9050919050565b7f53656c6c65722063616e6e6f742062757920686973206f776e2061727469636c60008201527f6500000000000000000000000000000000000000000000000000000000000000602082015250565b600061107e602183610ba3565b915061108982611022565b604082019050919050565b600060208201905081810360008301526110ad81611071565b9050919050565b7f56616c75652073656e74206973206e6f7420657175616c20746f20746865207060008201527f72696365206f66207468652061727469636c6500000000000000000000000000602082015250565b6000611110603383610ba3565b915061111b826110b4565b604082019050919050565b6000602082019050818103600083015261113f81611103565b9050919050565b7f4e487b7100000000000000000000000000000000000000000000000000000000600052601160045260246000fd5b6000611180826109ea565b915061118b836109ea565b92508282019050808211156111a3576111a2611146565b5b92915050565b7f4e487b7100000000000000000000000000000000000000000000000000000000600052603260045260246000fd5b60006111e3826109ea565b91507fffffffffffffffffffffffffffffffffffffffffffffffffffffffffffffffff820361121557611214611146565b5b600182019050919050565b7f4e487b7100000000000000000000000000000000000000000000000000000000600052602260045260246000fd5b6000600282049050600182168061126757607f821691505b60208210810361127a57611279611220565b5b50919050565b60008190508160005260206000209050919050565b60006020601f8301049050919050565b600082821b905092915050565b6000600883026112e27fffffffffffffffffffffffffffffffffffffffffffffffffffffffffffffffff826112a5565b6112ec86836112a5565b95508019841693508086168417925050509392505050565b6000819050919050565b600061132961132461131f846109ea565b611304565b6109ea565b9050919050565b6000819050919050565b6113438361130e565b61135761134f82611330565b8484546112b2565b825550505050565b600090565b61136c61135f565b61137781848461133a565b505050565b5b8181101561139b57611390600082611364565b60018101905061137d565b5050565b601f8211156113e0576113b181611280565b6113ba84611295565b810160208510156113c9578190505b6113dd6113d585611295565b83018261137c565b50505b505050565b600082821c905092915050565b6000611403600019846008026113e5565b1980831691505092915050565b600061141c83836113f2565b9150826002028217905092915050565b61143582610b98565b67ffffffffffffffff81111561144e5761144d610c93565b5b611458825461124f565b61146382828561139f565b600060209050601f8311600181146114965760008415611484578287015190505b61148e8582611410565b8655506114f6565b601f1984166114a486611280565b60005b828110156114cc578489015182556001820191506020850194506020810190506114a7565b868310156114e957848901516114e5601f8916826113f2565b8355505b6001600288020188555050505b50505050505056fea26469706673582212205e1114d9fef7714664ccea1b70cf54f10011ba71a3b75b05cdc1cd4772400bae64736f6c63430008100033",
  "immutableReferences": {},
  "source": "// SPDX-License-Identifier: MIT\r\npragma solidity ^0.8.8;\r\n\r\ncontract ChainList {\r\n\r\n    // Type variables\r\n    struct Article {\r\n        uint id;\r\n        address seller;\r\n        address buyer;\r\n        string name;\r\n        string description;\r\n        uint256 price;        \r\n    }\r\n    \r\n    mapping (uint => Article) public articles;\r\n    uint articleCounter;\r\n    \r\n    // Function to sell an article\r\n    function sellArticle(string memory _name, string memory _description, uint256 _price) public {\r\n        articleCounter++;\r\n        // store this article\r\n        articles[articleCounter] = Article(\r\n            articleCounter,\r\n            address(msg.sender),\r\n            address(0x0),\r\n            _name,\r\n            _description,\r\n            _price\r\n        );\r\n    }\r\n\r\n    // Function to get the number of articles\r\n    function getNumberOfArticles() public view returns (uint) {\r\n        return articleCounter;\r\n    }\r\n\r\n    // Function to get the array of articles which are still for sale\r\n    function getArticlesForSale() public view returns (uint[] memory){\r\n    // prepare output array\r\n    uint[] memory articleIds = new uint[](articleCounter);\r\n\r\n    // iterate over articles\r\n    for (uint i = 0; i < articleCounter; i++) {\r\n       articleIds[i] = articles[i + 1].id; // Adjust index to start from 0\r\n    }\r\n\r\n    return articleIds;\r\n}\r\n\r\n    function getArticle() public view returns (\r\n        address _seller,\r\n        address _buyer,\r\n        string memory _name,\r\n        string memory _description,\r\n        uint256 _price\r\n    ) {\r\n        address seller = articles[1].seller;\r\n        address buyer = articles[2].buyer;\r\n        string memory name = articles[3].name;\r\n        string memory description = articles[4].description;\r\n        uint256 price = articles[5].price;\r\n        \r\n        return (seller, buyer,name, description, price);\r\n    }\r\n\r\n    // Function to buy an article\r\n    function buyArticle(uint _id) payable public {\r\n        // The counter must be greater than 0\r\n        require(articleCounter > 0, \"There must be at least one article\");\r\n\r\n        // checks if the article exists\r\n        require(_id > 0 && _id <= articleCounter, \"The article must exist\");\r\n\r\n        // retrieve the article\r\n        Article storage article = articles[_id];\r\n\r\n        // checks if there is an article for sale\r\n        require(article.seller != address(0x0), \"Seller is not set\");\r\n\r\n        // checks if the article has not been sold yet\r\n        require(msg.sender != article.seller, \"Seller cannot buy his own article\");\r\n\r\n        // checks if the value sent corresponds to the price of the article\r\n        require(msg.value == article.price, \"Value sent is not equal to the price of the article\");\r\n\r\n        // transfer the ownership of the article\r\n        article.buyer = msg.sender;\r\n\r\n        // the buyer can pay the seller\r\n        payable(article.seller).transfer(msg.value);\r\n\r\n    }\r\n}\r\n",
  "sourcePath": "C:\\Users\\HP\\Desktop\\Coding Playground\\web3\\truffle\\web3-dapp\\Chainlist-web3-dapp\\contracts\\ChainList.sol",
  "compiler": {
    "name": "solc",
    "version": "0.8.16+commit.07a7930e.Emscripten.clang"
  },
  "schemaVersion": "3.4.16",
  "updatedAt": "2024-05-10T16:19:41.462Z",
  "networkType": "ethereum",
  "devdoc": {
    "kind": "dev",
    "methods": {},
    "version": 1
  },
  "userdoc": {
    "kind": "user",
    "methods": {},
    "version": 1
  }
}