{
  "contractName": "ChainList",
  "abi": [
    {
      "inputs": [
        {
          "internalType": "uint256",
          "name": "",
          "type": "uint256"
        }
      ],
      "name": "articles",
      "outputs": [
        {
          "internalType": "uint256",
          "name": "id",
          "type": "uint256"
        },
        {
          "internalType": "address",
          "name": "seller",
          "type": "address"
        },
        {
          "internalType": "address",
          "name": "buyer",
          "type": "address"
        },
        {
          "internalType": "string",
          "name": "name",
          "type": "string"
        },
        {
          "internalType": "string",
          "name": "description",
          "type": "string"
        },
        {
          "internalType": "uint256",
          "name": "price",
          "type": "uint256"
        }
      ],
      "stateMutability": "view",
      "type": "function",
      "constant": true
    },
    {
      "inputs": [
        {
          "internalType": "string",
          "name": "_name",
          "type": "string"
        },
        {
          "internalType": "string",
          "name": "_description",
          "type": "string"
        },
        {
          "internalType": "uint256",
          "name": "_price",
          "type": "uint256"
        }
      ],
      "name": "sellArticle",
      "outputs": [],
      "stateMutability": "nonpayable",
      "type": "function"
    },
    {
      "inputs": [],
      "name": "getNumberOfArticles",
      "outputs": [
        {
          "internalType": "uint256",
          "name": "",
          "type": "uint256"
        }
      ],
      "stateMutability": "view",
      "type": "function",
      "constant": true
    },
    {
      "inputs": [],
      "name": "getArticlesForSale",
      "outputs": [
        {
          "internalType": "uint256[]",
          "name": "",
          "type": "uint256[]"
        }
      ],
      "stateMutability": "view",
      "type": "function",
      "constant": true
    },
    {
      "inputs": [],
      "name": "getArticle",
      "outputs": [
        {
          "internalType": "address",
          "name": "_seller",
          "type": "address"
        },
        {
          "internalType": "address",
          "name": "_buyer",
          "type": "address"
        },
        {
          "internalType": "string",
          "name": "_name",
          "type": "string"
        },
        {
          "internalType": "string",
          "name": "_description",
          "type": "string"
        },
        {
          "internalType": "uint256",
          "name": "_price",
          "type": "uint256"
        }
      ],
      "stateMutability": "pure",
      "type": "function",
      "constant": true
    },
    {
      "inputs": [
        {
          "internalType": "uint256",
          "name": "_id",
          "type": "uint256"
        }
      ],
      "name": "buyArticle",
      "outputs": [],
      "stateMutability": "payable",
      "type": "function",
      "payable": true
    }
  ],
  "bytecode": "0x608060405234801561001057600080fd5b5061142e806100206000396000f3fe6080604052600436106100555760003560e01c80631cc4baa81461005a5780637f6be3da1461007657806389da85d3146100a1578063c37218a6146100cc578063d2609515146100fb578063edcfafe614610124575b600080fd5b610074600480360381019061006f919061094e565b610166565b005b34801561008257600080fd5b5061008b61042f565b6040516100989190610a39565b60405180910390f35b3480156100ad57600080fd5b506100b6610601565b6040516100c39190610a6a565b60405180910390f35b3480156100d857600080fd5b506100e161060b565b6040516100f2959493929190610b56565b60405180910390f35b34801561010757600080fd5b50610122600480360381019061011d9190610cec565b61061a565b005b34801561013057600080fd5b5061014b6004803603810190610146919061094e565b610778565b60405161015d96959493929190610d77565b60405180910390f35b6000600154116101ab576040517f08c379a00000000000000000000000000000000000000000000000000000000081526004016101a290610e58565b60405180910390fd5b6000811180156101bd57506001548111155b6101fc576040517f08c379a00000000000000000000000000000000000000000000000000000000081526004016101f390610ec4565b60405180910390fd5b60008060008381526020019081526020016000209050600073ffffffffffffffffffffffffffffffffffffffff168160010160009054906101000a900473ffffffffffffffffffffffffffffffffffffffff1673ffffffffffffffffffffffffffffffffffffffff16036102a5576040517f08c379a000000000000000000000000000000000000000000000000000000000815260040161029c90610f30565b60405180910390fd5b8060010160009054906101000a900473ffffffffffffffffffffffffffffffffffffffff1673ffffffffffffffffffffffffffffffffffffffff163373ffffffffffffffffffffffffffffffffffffffff1603610337576040517f08c379a000000000000000000000000000000000000000000000000000000000815260040161032e90610fc2565b60405180910390fd5b8060050154341461037d576040517f08c379a000000000000000000000000000000000000000000000000000000000815260040161037490611054565b60405180910390fd5b338160020160006101000a81548173ffffffffffffffffffffffffffffffffffffffff021916908373ffffffffffffffffffffffffffffffffffffffff1602179055508060010160009054906101000a900473ffffffffffffffffffffffffffffffffffffffff1673ffffffffffffffffffffffffffffffffffffffff166108fc349081150290604051600060405180830381858888f1935050505015801561042a573d6000803e3d6000fd5b505050565b6060600060015467ffffffffffffffff81111561044f5761044e610bc1565b5b60405190808252806020026020018201604052801561047d5781602001602082028036833780820191505090505b509050600080600190505b600154811161055157600073ffffffffffffffffffffffffffffffffffffffff1660008083815260200190815260200160002060020160009054906101000a900473ffffffffffffffffffffffffffffffffffffffff1673ffffffffffffffffffffffffffffffffffffffff160361053e576000808281526020019081526020016000206000015483838151811061052357610522611074565b5b602002602001018181525050818061053a906110d2565b9250505b8080610549906110d2565b915050610488565b5060008167ffffffffffffffff81111561056e5761056d610bc1565b5b60405190808252806020026020018201604052801561059c5781602001602082028036833780820191505090505b50905060005b828110156105f7578381815181106105bd576105bc611074565b5b60200260200101518282815181106105d8576105d7611074565b5b60200260200101818152505080806105ef906110d2565b9150506105a2565b5080935050505090565b6000600154905090565b60008060608060009091929394565b6001600081548092919061062d906110d2565b91905055506040518060c0016040528060015481526020013373ffffffffffffffffffffffffffffffffffffffff168152602001600073ffffffffffffffffffffffffffffffffffffffff1681526020018481526020018381526020018281525060008060015481526020019081526020016000206000820151816000015560208201518160010160006101000a81548173ffffffffffffffffffffffffffffffffffffffff021916908373ffffffffffffffffffffffffffffffffffffffff16021790555060408201518160020160006101000a81548173ffffffffffffffffffffffffffffffffffffffff021916908373ffffffffffffffffffffffffffffffffffffffff160217905550606082015181600301908161074f9190611326565b5060808201518160040190816107659190611326565b5060a08201518160050155905050505050565b60006020528060005260406000206000915090508060000154908060010160009054906101000a900473ffffffffffffffffffffffffffffffffffffffff16908060020160009054906101000a900473ffffffffffffffffffffffffffffffffffffffff16908060030180546107ed90611149565b80601f016020809104026020016040519081016040528092919081815260200182805461081990611149565b80156108665780601f1061083b57610100808354040283529160200191610866565b820191906000526020600020905b81548152906001019060200180831161084957829003601f168201915b50505050509080600401805461087b90611149565b80601f01602080910402602001604051908101604052809291908181526020018280546108a790611149565b80156108f45780601f106108c9576101008083540402835291602001916108f4565b820191906000526020600020905b8154815290600101906020018083116108d757829003601f168201915b5050505050908060050154905086565b6000604051905090565b600080fd5b600080fd5b6000819050919050565b61092b81610918565b811461093657600080fd5b50565b60008135905061094881610922565b92915050565b6000602082840312156109645761096361090e565b5b600061097284828501610939565b91505092915050565b600081519050919050565b600082825260208201905092915050565b6000819050602082019050919050565b6109b081610918565b82525050565b60006109c283836109a7565b60208301905092915050565b6000602082019050919050565b60006109e68261097b565b6109f08185610986565b93506109fb83610997565b8060005b83811015610a2c578151610a1388826109b6565b9750610a1e836109ce565b9250506001810190506109ff565b5085935050505092915050565b60006020820190508181036000830152610a5381846109db565b905092915050565b610a6481610918565b82525050565b6000602082019050610a7f6000830184610a5b565b92915050565b600073ffffffffffffffffffffffffffffffffffffffff82169050919050565b6000610ab082610a85565b9050919050565b610ac081610aa5565b82525050565b600081519050919050565b600082825260208201905092915050565b60005b83811015610b00578082015181840152602081019050610ae5565b60008484015250505050565b6000601f19601f8301169050919050565b6000610b2882610ac6565b610b328185610ad1565b9350610b42818560208601610ae2565b610b4b81610b0c565b840191505092915050565b600060a082019050610b6b6000830188610ab7565b610b786020830187610ab7565b8181036040830152610b8a8186610b1d565b90508181036060830152610b9e8185610b1d565b9050610bad6080830184610a5b565b9695505050505050565b600080fd5b600080fd5b7f4e487b7100000000000000000000000000000000000000000000000000000000600052604160045260246000fd5b610bf982610b0c565b810181811067ffffffffffffffff82111715610c1857610c17610bc1565b5b80604052505050565b6000610c2b610904565b9050610c378282610bf0565b919050565b600067ffffffffffffffff821115610c5757610c56610bc1565b5b610c6082610b0c565b9050602081019050919050565b82818337600083830152505050565b6000610c8f610c8a84610c3c565b610c21565b905082815260208101848484011115610cab57610caa610bbc565b5b610cb6848285610c6d565b509392505050565b600082601f830112610cd357610cd2610bb7565b5b8135610ce3848260208601610c7c565b91505092915050565b600080600060608486031215610d0557610d0461090e565b5b600084013567ffffffffffffffff811115610d2357610d22610913565b5b610d2f86828701610cbe565b935050602084013567ffffffffffffffff811115610d5057610d4f610913565b5b610d5c86828701610cbe565b9250506040610d6d86828701610939565b9150509250925092565b600060c082019050610d8c6000830189610a5b565b610d996020830188610ab7565b610da66040830187610ab7565b8181036060830152610db88186610b1d565b90508181036080830152610dcc8185610b1d565b9050610ddb60a0830184610a5b565b979650505050505050565b7f5468657265206d757374206265206174206c65617374206f6e6520617274696360008201527f6c65000000000000000000000000000000000000000000000000000000000000602082015250565b6000610e42602283610ad1565b9150610e4d82610de6565b604082019050919050565b60006020820190508181036000830152610e7181610e35565b9050919050565b7f5468652061727469636c65206d75737420657869737400000000000000000000600082015250565b6000610eae601683610ad1565b9150610eb982610e78565b602082019050919050565b60006020820190508181036000830152610edd81610ea1565b9050919050565b7f53656c6c6572206973206e6f7420736574000000000000000000000000000000600082015250565b6000610f1a601183610ad1565b9150610f2582610ee4565b602082019050919050565b60006020820190508181036000830152610f4981610f0d565b9050919050565b7f53656c6c65722063616e6e6f742062757920686973206f776e2061727469636c60008201527f6500000000000000000000000000000000000000000000000000000000000000602082015250565b6000610fac602183610ad1565b9150610fb782610f50565b604082019050919050565b60006020820190508181036000830152610fdb81610f9f565b9050919050565b7f56616c75652073656e74206973206e6f7420657175616c20746f20746865207060008201527f72696365206f66207468652061727469636c6500000000000000000000000000602082015250565b600061103e603383610ad1565b915061104982610fe2565b604082019050919050565b6000602082019050818103600083015261106d81611031565b9050919050565b7f4e487b7100000000000000000000000000000000000000000000000000000000600052603260045260246000fd5b7f4e487b7100000000000000000000000000000000000000000000000000000000600052601160045260246000fd5b60006110dd82610918565b91507fffffffffffffffffffffffffffffffffffffffffffffffffffffffffffffffff820361110f5761110e6110a3565b5b600182019050919050565b7f4e487b7100000000000000000000000000000000000000000000000000000000600052602260045260246000fd5b6000600282049050600182168061116157607f821691505b6020821081036111745761117361111a565b5b50919050565b60008190508160005260206000209050919050565b60006020601f8301049050919050565b600082821b905092915050565b6000600883026111dc7fffffffffffffffffffffffffffffffffffffffffffffffffffffffffffffffff8261119f565b6111e6868361119f565b95508019841693508086168417925050509392505050565b6000819050919050565b600061122361121e61121984610918565b6111fe565b610918565b9050919050565b6000819050919050565b61123d83611208565b6112516112498261122a565b8484546111ac565b825550505050565b600090565b611266611259565b611271818484611234565b505050565b5b818110156112955761128a60008261125e565b600181019050611277565b5050565b601f8211156112da576112ab8161117a565b6112b48461118f565b810160208510156112c3578190505b6112d76112cf8561118f565b830182611276565b50505b505050565b600082821c905092915050565b60006112fd600019846008026112df565b1980831691505092915050565b600061131683836112ec565b9150826002028217905092915050565b61132f82610ac6565b67ffffffffffffffff81111561134857611347610bc1565b5b6113528254611149565b61135d828285611299565b600060209050601f831160018114611390576000841561137e578287015190505b611388858261130a565b8655506113f0565b601f19841661139e8661117a565b60005b828110156113c6578489015182556001820191506020850194506020810190506113a1565b868310156113e357848901516113df601f8916826112ec565b8355505b6001600288020188555050505b50505050505056fea26469706673582212206ccc9ff08dc79328a5c84f8e744cade4a30cab5f6d3eb5717be4c972c524305164736f6c63430008100033",
  "immutableReferences": {},
  "source": "// SPDX-License-Identifier: MIT\r\npragma solidity ^0.8.8;\r\n\r\ncontract ChainList {\r\n\r\n    // Type variables\r\n    struct Article {\r\n        uint id;\r\n        address seller;\r\n        address buyer;\r\n        string name;\r\n        string description;\r\n        uint256 price;        \r\n    }\r\n    \r\n    mapping (uint => Article) public articles;\r\n    uint articleCounter;\r\n    \r\n    // Function to sell an article\r\n    function sellArticle(string memory _name, string memory _description, uint256 _price) public {\r\n        articleCounter++;\r\n        // store this article\r\n        articles[articleCounter] = Article(\r\n            articleCounter,\r\n            address(msg.sender),\r\n            address(0x0),\r\n            _name,\r\n            _description,\r\n            _price\r\n        );\r\n    }\r\n\r\n    // Function to get the number of articles\r\n    function getNumberOfArticles() public view returns (uint) {\r\n        return articleCounter;\r\n    }\r\n\r\n    // Function to get the array of articles which are still for sale\r\n    function getArticlesForSale() public view returns (uint[] memory){\r\n        // prepare putput array\r\n        uint[] memory artileId = new uint[](articleCounter);\r\n        uint numberOfArticlesForSale = 0;\r\n        // iterate over articles\r\n        for (uint i = 1; i <= articleCounter; i++) {\r\n            if (articles[i].buyer == address(0x0)) {\r\n                artileId[numberOfArticlesForSale] = articles[i].id;\r\n                numberOfArticlesForSale++;\r\n            }\r\n        }\r\n\r\n        // copy the articleId array into a smaller forSale array\r\n        uint[] memory forSale = new uint[](numberOfArticlesForSale);\r\n        for (uint i = 0; i < numberOfArticlesForSale; i++) {\r\n            forSale[i] = artileId[i];\r\n        }\r\n        return forSale;\r\n    }\r\n\r\n    function getArticle() public pure returns (\r\n        address _seller,\r\n        address _buyer,\r\n        string memory _name,\r\n        string memory _description,\r\n        uint256 _price\r\n    ) {\r\n        return (_seller, _buyer,_name, _description, _price);\r\n    }\r\n\r\n    // Function to buy an article\r\n    function buyArticle(uint _id) payable public {\r\n        // The counter must be greater than 0\r\n        require(articleCounter > 0, \"There must be at least one article\");\r\n\r\n        // checks if the article exists\r\n        require(_id > 0 && _id <= articleCounter, \"The article must exist\");\r\n\r\n        // retrieve the article\r\n        Article storage article = articles[_id];\r\n\r\n        // checks if there is an article for sale\r\n        require(article.seller != address(0x0), \"Seller is not set\");\r\n\r\n        // checks if the article has not been sold yet\r\n        require(msg.sender != article.seller, \"Seller cannot buy his own article\");\r\n\r\n        // checks if the value sent corresponds to the price of the article\r\n        require(msg.value == article.price, \"Value sent is not equal to the price of the article\");\r\n\r\n        // transfer the ownership of the article\r\n        article.buyer = msg.sender;\r\n\r\n        // the buyer can pay the seller\r\n        payable(article.seller).transfer(msg.value);\r\n\r\n    }\r\n}\r\n",
  "sourcePath": "C:\\Users\\HP\\Desktop\\Coding Playground\\web3\\truffle\\web3-dapp\\Chainlist-web3-dapp\\contracts\\ChainList.sol",
  "compiler": {
    "name": "solc",
    "version": "0.8.16+commit.07a7930e.Emscripten.clang"
  },
  "schemaVersion": "3.4.16",
  "updatedAt": "2024-05-08T16:43:53.436Z",
  "networkType": "ethereum",
  "devdoc": {
    "kind": "dev",
    "methods": {},
    "version": 1
  },
  "userdoc": {
    "kind": "user",
    "methods": {},
    "version": 1
  }
}